:100000000206C3008F828E83E0540100000070F866
:100010002278FFE4F6D8FD020721BB010689828A17
:1000200083E0225002E722BBFE02E32289828A8318
:10003000E49322BB010689828A83F0225002F722D0
:10004000BBFE01F322E88FF0A4CC8BF0A42CFCE9DA
:100050008EF0A42CFC8AF0EDA42CFCEA8EF0A4CD4A
:10006000A8F08BF0A42DCC3825F0FDE98FF0A42C5E
:10007000CD35F0FCEB8EF0A4FEA9F0EB8FF0A4CF11
:10008000C5F02ECD39FEE43CFCEAA42DCE35F0FDC2
:10009000E43CFC2275F008758200EF2FFFEE33FE82
:1000A000CD33CDCC33CCC58233C5829BED9AEC9950
:1000B000E58298400CF582EE9BFEED9AFDEC99FCF2
:1000C0000FD5F0D6E4CEFBE4CDFAE4CCF9A8822239
:1000D000B800C1B90059BA002DEC8BF084CFCECD59
:1000E000FCE5F0CBF97818EF2FFFEE33FEED33FD92
:1000F000EC33FCEB33FB10D703994004EB99FB0F77
:10010000D8E5E4F9FA227818EF2FFFEE33FEED334D
:10011000FDEC33FCC933C910D7059BE99A4007ECC5
:100120009BFCE99AF90FD8E0E4C9FAE4CCFB22750C
:10013000F010EF2FFFEE33FEED33FDCC33CCC833A0
:10014000C810D7079BEC9AE899400AED9BFDEC9A02
:10015000FCE899F80FD5F0DAE4CDFBE4CCFAE4C87A
:10016000F922EB9FF5F0EA9E42F0E99D42F0E89C0F
:1001700045F022E8600FECC313FCED13FDEE13FE17
:10018000EF13FFD8F122E8600FEFC333FFEE33FE29
:10019000ED33FDEC33FCD8F122BB010789828A8361
:1001A0000202625005E9F8020256BBFE05E9F802B8
:1001B000026E89828A8302027ABB010789828A835E
:1001C0000201D35005E9F802028ABBFE05E9F802F4
:1001D000029622ECF0A3EDF0A3EEF0A3EFF022D014
:1001E00083D082F8E4937012740193700DA3A393EB
:1001F000F8740193F5828883E4737402936860EF66
:10020000A3A3A380DFE50C2582F582E50B3583F5FA
:1002100083B50B0485820C2210AF0685820CF50B8A
:100220002285820CF50BD2AF22EC8EF0A4CCC5F067
:10023000CCCDF8EFA4CEC5F02DFDE43CFCE8A42E17
:10024000C8C5F03DFDE43CFCEFA4FFE5F028FEE46A
:100250003DFDE43CFC22E6FC08E6FD08E6FE08E67F
:10026000FF22E0FCA3E0FDA3E0FEA3E0FF22E2FC0E
:1002700008E2FD08E2FE08E2FF22E493FC74019329
:10028000FD740293FE740393FF22ECF608EDF6086A
:10029000EEF608EFF622ECF208EDF208EEF208EFC7
:1002A000F22290480074C0F01205BF90480074809C
:1002B000F07B007A4679E8120D8FEF4405FD7B0054
:1002C0007A4679E8120D9B750A00E50AC394085036
:1002D00042AF0AEF75F005A424A7F582E4340DF5CA
:1002E00083AF82AE838E088F09AE08AF098F828EEE
:1002F00083E493FB740193FA740293F9AE08AF0997
:100300008F828E83740393FC740493FD120AE705B5
:100310000A80B77B017A507903120D8FEF4402FDFA
:100320007B017A507903120D9B7B017A507913126D
:100330000D8FEF4402FD7B017A507913120D9B90D3
:1003400043A0E0FFEF4440FF9043A0EFF09043C292
:10035000E0FFEF4410FF9043C2EFF07B087A007992
:1003600000C003C002C0017B007A51790290009B5B
:10037000EBF0A3EAF0A3E9F0D001D002D0037F08AC
:100380007E00120BB77B087A007908C003C002C058
:10039000017B007A51791290009BEBF0A3EAF0A365
:1003A000E9F0D001D002D0037F087E00120BB77BAA
:1003B000087A007910C003C002C0017B007A51792D
:1003C0002290009BEBF0A3EAF0A3E9F0D001D00269
:1003D000D0037F087E00120BB7904322E0FFEF446A
:1003E00008FF904322EFF09046ECE0FFEFC3940546
:1003F0005006904689743AF0120AA57B007A437938
:10040000A0C003C002C0017B007A4379B090009B7A
:10041000EBF0A3EAF0A3E9F0D001D002D0037F0E05
:100420007E00120BB79043B0E0FFEF54FDFFEFF0FA
:10043000227F947E017D007C009000C51201D39044
:100440005120E0FFEF5480FFEFF0905122E0FFEFEA
:1004500054F0FF9000C4EFF09000C4E0FFEF440FB1
:10046000FF905122EFF0905123E0FFEF54F0FF9006
:1004700000C4EFF09000C4E0FF905123EFF09051E2
:1004800024E0FFEF54F0FF9000C4EFF09000C4E0D0
:10049000FF905124EFF0905120E0FFEF54DFFFEF89
:1004A000F0905120E0FFEF4440FFEFF07F007E002E
:1004B000120C80905120E0FFEF4410FFEFF07F011D
:1004C0007E00120C80905121E0FF9000C4EFF0906C
:1004D0005120E0FFEF54EFFFEFF07F007E00120CA1
:1004E000809000C4E0FFEF5408FF9000C4EFF0904C
:1004F0005120E0FFEF4410FFEFF07F017E00120C6F
:1005000080905120E0FFEF54EFFFEFF09000C4E047
:10051000FFEF70077F0A7E00120C809000C5E0FCA0
:10052000A3E0FDA3E0FEA3E0FF7BFF7AFF79FF7865
:10053000FFEF2BFFEE3AFEED39FDEC38FC9000C5E5
:100540001201D39000C4E0FFEF601A9000C5E0FCF8
:10055000A3E0FDA3E0FEA3E0FFD3EF9400EE940040
:1005600040030204AC905120E0FFEF54BFFFEFF0D6
:10057000905120E0FFEF5480FFEFF0905122E0FF18
:10058000EF54F0FFEFF0905123E0FFEF54F0FF90B5
:1005900000C4EFF09000C4E0FFEF440FFF90512340
:1005A000EFF0905124E0FFEF54F0FF9000C4EFF023
:1005B0009000C4E0FFEF440FFF905124EFF0229031
:1005C00043007402F09040007408F09042007403FD
:1005D000F07B0C7A017908120D8F9046A1EFF07B29
:1005E000007A4279227D087C00120D747B007A42E9
:1005F00079207D517C12120D749000D2E4F07F19A5
:100600007E007D007C009000CE1201D39000CEE0F1
:10061000FCA3E0FDA3E0FEA3E0FFD3EF9400EE9483
:1006200000405F9000D2E0FFEF64036055904225E8
:10063000E0FFEF5401FF7E009000D2E0FEEE25E0E7
:10064000FEEE4FFFEF5403FF9000D2EFF07F787E75
:10065000007D007C00120B009000CEE0FCA3E0FDCA
:10066000A3E0FEA3E0FF7BFF7AFF79FF78FFEF2B8B
:10067000FFEE3AFEED39FDEC38FC9000CE1201D3CE
:10068000808A9000CEE0FCA3E0FDA3E0FEA3E0FFA3
:10069000EF4E70057F03120D527B007A4079047D86
:1006A000007C01120D749040047407F0904006E441
:1006B000F09040087448F0904004E4F090400174D9
:1006C00002F02275930078007583467582E8E04455
:1006D00001F0009046ECE0F99046FAE0FAB9032206
:1006E0005420B40012B8001AEA901FFFF074019071
:1006F0001FFEF09046F6F0901FFEE06005901FFF91
:10070000E0FA9048007440F075810C900000780089
:100710007920E4F0A3D8FCD9FAEA90005EF0020058
:1007200011750B1F750CFD1209C71202A202076B8F
:10073000020BEBE493A3F8E493A34003F68001F2E9
:1007400008DFF48029E493A3F85407240CC8C333CA
:10075000C4540F4420C8834004F456800146F6DF99
:10076000E4800B0102040810204080900C1EE47EFF
:10077000019360BCA3FF543F30E509541FFEE4938E
:10078000A360010ECF54C025E060A840B8E493A355
:10079000FAE493A3F8E493A3C8C582C8CAC583CA80
:1007A000F0A3C8C582C8CAC583CADFE9DEE780BE38
:1007B00090FFFC1202051201D3850B83850C82E0A9
:1007C000FCA3E0FDA3E0FEA3E0FFD3EF9400EE94D2
:1007D00080403F90005FE0FCA3E0FDA3E0FEA3E0CB
:1007E000FF120B00850B83850C82C083C082E0FC66
:1007F000A3E0FDA3E0FEA3E0FFEF2400FFEE3480C2
:10080000FEED34FFFDEC34FFFCD082D0831201D327
:1008100080A7900055E0FCA3E0FDA3E0FEA3E0FF6D
:10082000850B83850C82E0F8A3E0F9A3E0FAA3E04E
:10083000FB120045120B00900004120205227F28D3
:100840007E007D007C001207B07F03120A157F0531
:100850007E007D007C001207B07F03120A157F0F17
:100860007E007D007C001207B07F03120A157F0115
:100870007E007D007C001207B07F02120A157F0502
:100880007E007D007C001207B07F06120B817F0E78
:10089000120B817F2C120B817F08120B817F0112BA
:1008A0000B817F0C120B817F03120B817F057E0071
:1008B0007D007C001207B0229000BFEBF0A3EAF0AD
:1008C000A3E9F09000C27401F09000BFE0FBA3E048
:1008D000FAA3E0F912001AFF9000C3EFF09000C3F2
:1008E000E0FFEF602F9000C3E0FF120B4B9000BFC2
:1008F000E0FBA3E0FAA3E0F99000C2E0FFE92FF9E2
:10090000E43AFA12001AFF9000C3EFF09000C2E040
:1009100004F080C92290014DEFF0905120E0FFEFEC
:100920004420FFEFF0905120E0FFEF54BFFFEFF0C5
:100930007F007E00120C80905120E0FFEF54F0FF0A
:10094000EFF0905120C083C082E0FF90014DE0FEA7
:10095000EE4410FEEF4EFFD082D083EFF07F017E99
:1009600000120C80905120E0FFEF54EFFFEFF022D7
:10097000900123EFF0900124EDF0900123E0FFEFD0
:100980001201DF09930009A00109AD0209BA0300B1
:100990000009C6900124E0FFEF2480FF120B8122A2
:1009A000900124E0FFEF24C0FF120B81229001246C
:1009B000E0FFEF2494FF120B8122900124E0FFEF6F
:1009C00024D4FF120B812290015DE4F090015DE0E0
:1009D000FFEFD3941F503D90015DE0FF7E02EF8E4C
:1009E000F0A4FFAEF0EF2400FFEE3444FEAA06A907
:1009F000077B01C003C002C0017BFF7A0C797DAC8C
:100A000002AD01D001D002D003120D7690015DE05D
:100A100004F080B82290014EEFF0905120E0FFEFFB
:100A2000549FFFEFF0905120E0FFEF54F0FFEFF004
:100A3000905120C083C082E0FF90014EE0FEEE4462
:100A400010FEEF4EFFD082D083EFF07F017E0012C8
:100A50000C80905120E0FFEF54EFFFEFF022905810
:100A600028E0FFEF540CFF7E00EF7802CEC313CED8
:100A700013D8F9FFEF2406FF90014AEFF090014AE6
:100A8000E0FFE4FCFDFEEF2428FFEE3401FEED3430
:100A90000CFDEC3400FCA907AA06AB05120D8F90E3
:100AA000460AEFF0227B0C7A0179CF120D8F90016C
:100AB00051EFF0900151E0FFEF5407FF90586EEFB7
:100AC000F0900151E0FFEFC4540FFFEF540FFF907F
:100AD000586FEFF090510D7410F0905A907410F020
:100AE0009058767444F022EC4D6011ED60010C8B4F
:100AF000938A838982E4F0A3DDFCDCFA75930022FB
:100B0000EC4D4E700D78FCEF24E950032840FD2297
:100B1000000078C5904800E0C403035403900B47DD
:100B20009325E0240FF404FBEF28FF78FFEE38FE56
:100B3000ED38FDEC38FC50D7EF2BFFEE38FEED38EA
:100B4000FDEC38FC40F22205020304900125EFF091
:100B5000120431900125E0FFEFC4540FFF900126ED
:100B6000EFF0900126E0FF120915900125E0FFEF5C
:100B7000540FFF900126EFF0900126E0FF120915B7
:100B800022900127EFF0120431900127E0FFEFC41B
:100B9000540FFF900128EFF0900128E0FF120A1592
:100BA000900127E0FFEF540FFF900128EFF0900134
:100BB00028E0FF120A1522758600EF4E6027EF60CD
:100BC000010E75930090009BE0F595A3E0F585A3D9
:100BD000E0F5848B938A838982E0A30586F0A315D0
:100BE00086DFF6DEF4E4F593F59522120D3D7F01E4
:100BF000120B81120CF77FC8120D647D007F00126A
:100C000009707BFF7A0C79D91208B87D007F011238
:100C100009707BFF7A0C79E61208B880FE22410148
:100C20004B0041012C0041012B0044005A016E365B
:100C30000044005500005DC04100591844005F2E7B
:100C4000E000004300F100000041016C0000900151
:100C500048EFF0905828E0FFEF54F3FFEFF0905882
:100C600028C083C082E0FF900148E0FEEE540CFEF5
:100C7000EF4EFFD082D083EFF0120A5E2280FE3268
:100C8000EEFA900059E0F88FF0A4FFAEF0E88AF099
:100C9000A42EFEE5F03400FDEF24C9FF78FFEE3806
:100CA000FEED38FDE438FC5003020B0022900147B2
:100CB000EFF0905828E0FFEF54FDFFEFF090582838
:100CC000C083C082E0FF900147E0FEEE5402FEEFD9
:100CD0004EFFD082D083EFF02220202056444143A3
:100CE0002044454D4F0052616E6765203A20302DFB
:100CF000312E303230560090014BE0FFEF70091278
:100D00000D2890014B7401F0120D117FC8120D6473
:100D1000229043A8E0FFEF4404FFEFF09043B8E0D7
:100D2000FFEF4404FFEFF022905828E4F090582998
:100D3000E4F07F00120C4E7F00120CAD2290012BCC
:100D4000E0FFEF700912083E90012B7401F0120DC4
:100D50008322900150EFF0900150E0FF900150EF9E
:100D6000F080FE22900149EFF0900149E0FF905B96
:100D700082EFF0228B938A838982EDF0A3ECF075E9
:100D80009300227F0C120B8190012C7401F0228BB6
:100D9000938A838982E0759300FF228B938A8389EB
:100DA00082EDF07593002200513000400051C000E8
:100DB000100051F0001001000010000114000800A4
:0F0DC0000140000A00014C000200015000002019
:00000001FF
